{
  "address": "0x5718a716Bf7CCBd162a0c734a4F3624dedB26e70",
  "abi": [
    {
      "inputs": [
        {
          "internalType": "address",
          "name": "_priceFeed",
          "type": "address"
        }
      ],
      "stateMutability": "nonpayable",
      "type": "constructor"
    },
    {
      "inputs": [],
      "name": "CallFailed",
      "type": "error"
    },
    {
      "inputs": [],
      "name": "NotEnough",
      "type": "error"
    },
    {
      "anonymous": false,
      "inputs": [
        {
          "indexed": false,
          "internalType": "address",
          "name": "funder",
          "type": "address"
        },
        {
          "indexed": false,
          "internalType": "uint256",
          "name": "amountUsd",
          "type": "uint256"
        }
      ],
      "name": "FundIn",
      "type": "event"
    },
    {
      "anonymous": false,
      "inputs": [
        {
          "indexed": false,
          "internalType": "address",
          "name": "_to",
          "type": "address"
        },
        {
          "indexed": false,
          "internalType": "uint256",
          "name": "amount",
          "type": "uint256"
        }
      ],
      "name": "Withdraw",
      "type": "event"
    },
    {
      "stateMutability": "payable",
      "type": "fallback"
    },
    {
      "inputs": [
        {
          "internalType": "address",
          "name": "",
          "type": "address"
        }
      ],
      "name": "addressToAmountUsd",
      "outputs": [
        {
          "internalType": "uint256",
          "name": "",
          "type": "uint256"
        }
      ],
      "stateMutability": "view",
      "type": "function"
    },
    {
      "inputs": [],
      "name": "fund",
      "outputs": [],
      "stateMutability": "payable",
      "type": "function"
    },
    {
      "inputs": [
        {
          "internalType": "uint256",
          "name": "",
          "type": "uint256"
        }
      ],
      "name": "funders",
      "outputs": [
        {
          "internalType": "address",
          "name": "",
          "type": "address"
        }
      ],
      "stateMutability": "view",
      "type": "function"
    },
    {
      "inputs": [],
      "name": "i_owner",
      "outputs": [
        {
          "internalType": "address",
          "name": "",
          "type": "address"
        }
      ],
      "stateMutability": "view",
      "type": "function"
    },
    {
      "inputs": [],
      "name": "priceFeed",
      "outputs": [
        {
          "internalType": "contract AggregatorV3Interface",
          "name": "",
          "type": "address"
        }
      ],
      "stateMutability": "view",
      "type": "function"
    },
    {
      "inputs": [],
      "name": "withdraw",
      "outputs": [],
      "stateMutability": "nonpayable",
      "type": "function"
    },
    {
      "stateMutability": "payable",
      "type": "receive"
    }
  ],
  "transactionHash": "0x3b02c9034bcc6b47c2961a18a9ddfaa8320f82365393a629f3e564caacc204d5",
  "args": [
    "0x694aa1769357215de4fac081bf1f309adc325306"
  ],
  "numDeployments": 5,
  "solcInputHash": "202931a6aaa7d5a2082137e13bd18466",
  "bytecode": "0x60a060405234801561001057600080fd5b50604051610d91380380610d9183398181016040528101906100329190610110565b3373ffffffffffffffffffffffffffffffffffffffff1660808173ffffffffffffffffffffffffffffffffffffffff168152505080600260006101000a81548173ffffffffffffffffffffffffffffffffffffffff021916908373ffffffffffffffffffffffffffffffffffffffff1602179055505061013d565b600080fd5b600073ffffffffffffffffffffffffffffffffffffffff82169050919050565b60006100dd826100b2565b9050919050565b6100ed816100d2565b81146100f857600080fd5b50565b60008151905061010a816100e4565b92915050565b600060208284031215610126576101256100ad565b5b6000610134848285016100fb565b91505092915050565b608051610c3261015f600039600081816103cb01526105060152610c326000f3fe6080604052600436106100595760003560e01c80633ccfd60b1461007257806359bc844714610089578063741bef1a146100c6578063b60d4288146100f1578063dba6335f146100fb578063dc0d3dff1461012657610068565b3661006857610066610163565b005b610070610163565b005b34801561007e57600080fd5b506100876102bb565b005b34801561009557600080fd5b506100b060048036038101906100ab9190610738565b6104c6565b6040516100bd919061077e565b60405180910390f35b3480156100d257600080fd5b506100db6104de565b6040516100e891906107f8565b60405180910390f35b6100f9610163565b005b34801561010757600080fd5b50610110610504565b60405161011d9190610822565b60405180910390f35b34801561013257600080fd5b5061014d60048036038101906101489190610869565b610528565b60405161015a9190610822565b60405180910390f35b6802b5e3af16b18800006101a2600260009054906101000a900473ffffffffffffffffffffffffffffffffffffffff163461056790919063ffffffff16565b116101d9576040517fd0b32bf400000000000000000000000000000000000000000000000000000000815260040160405180910390fd5b6000339080600181540180825580915050600190039060005260206000200160009091909190916101000a81548173ffffffffffffffffffffffffffffffffffffffff021916908373ffffffffffffffffffffffffffffffffffffffff16021790555034600160003373ffffffffffffffffffffffffffffffffffffffff1673ffffffffffffffffffffffffffffffffffffffff168152602001908152602001600020819055507f7bbbb6b04506ebde20a6dce102203fbda7050a6a5016bfc2136aa709092d624233346040516102b1929190610896565b60405180910390a1565b60005b6000805490508110156103665760008082815481106102e0576102df6108bf565b5b9060005260206000200160009054906101000a900473ffffffffffffffffffffffffffffffffffffffff1690506000600160008373ffffffffffffffffffffffffffffffffffffffff1673ffffffffffffffffffffffffffffffffffffffff1681526020019081526020016000208190555050808061035e9061091d565b9150506102be565b50600067ffffffffffffffff81111561038257610381610965565b5b6040519080825280602002602001820160405280156103b05781602001602082028036833780820191505090505b50600090805190602001906103c692919061062e565b5060007f000000000000000000000000000000000000000000000000000000000000000073ffffffffffffffffffffffffffffffffffffffff164760405161040d906109c5565b60006040518083038185875af1925050503d806000811461044a576040519150601f19603f3d011682016040523d82523d6000602084013e61044f565b606091505b505090508061048a576040517f3204506f00000000000000000000000000000000000000000000000000000000815260040160405180910390fd5b7f884edad9ce6fa2440d8a54cc123490eb96d2768479d49ff9c7366125a942436433476040516104bb929190610896565b60405180910390a150565b60016020528060005260406000206000915090505481565b600260009054906101000a900473ffffffffffffffffffffffffffffffffffffffff1681565b7f000000000000000000000000000000000000000000000000000000000000000081565b6000818154811061053857600080fd5b906000526020600020016000915054906101000a900473ffffffffffffffffffffffffffffffffffffffff1681565b6000806105738361059d565b9050670de0b6b3a7640000848261058a91906109da565b6105949190610a4b565b91505092915050565b6000808273ffffffffffffffffffffffffffffffffffffffff1663feaf968c6040518163ffffffff1660e01b815260040160a060405180830381865afa1580156105eb573d6000803e3d6000fd5b505050506040513d601f19601f8201168201806040525081019061060f9190610b09565b5050509150506402540be400816106269190610b84565b915050919050565b8280548282559060005260206000209081019282156106a7579160200282015b828111156106a65782518260006101000a81548173ffffffffffffffffffffffffffffffffffffffff021916908373ffffffffffffffffffffffffffffffffffffffff1602179055509160200191906001019061064e565b5b5090506106b491906106b8565b5090565b5b808211156106d15760008160009055506001016106b9565b5090565b600080fd5b600073ffffffffffffffffffffffffffffffffffffffff82169050919050565b6000610705826106da565b9050919050565b610715816106fa565b811461072057600080fd5b50565b6000813590506107328161070c565b92915050565b60006020828403121561074e5761074d6106d5565b5b600061075c84828501610723565b91505092915050565b6000819050919050565b61077881610765565b82525050565b6000602082019050610793600083018461076f565b92915050565b6000819050919050565b60006107be6107b96107b4846106da565b610799565b6106da565b9050919050565b60006107d0826107a3565b9050919050565b60006107e2826107c5565b9050919050565b6107f2816107d7565b82525050565b600060208201905061080d60008301846107e9565b92915050565b61081c816106fa565b82525050565b60006020820190506108376000830184610813565b92915050565b61084681610765565b811461085157600080fd5b50565b6000813590506108638161083d565b92915050565b60006020828403121561087f5761087e6106d5565b5b600061088d84828501610854565b91505092915050565b60006040820190506108ab6000830185610813565b6108b8602083018461076f565b9392505050565b7f4e487b7100000000000000000000000000000000000000000000000000000000600052603260045260246000fd5b7f4e487b7100000000000000000000000000000000000000000000000000000000600052601160045260246000fd5b600061092882610765565b91507fffffffffffffffffffffffffffffffffffffffffffffffffffffffffffffffff820361095a576109596108ee565b5b600182019050919050565b7f4e487b7100000000000000000000000000000000000000000000000000000000600052604160045260246000fd5b600081905092915050565b50565b60006109af600083610994565b91506109ba8261099f565b600082019050919050565b60006109d0826109a2565b9150819050919050565b60006109e582610765565b91506109f083610765565b92508282026109fe81610765565b91508282048414831517610a1557610a146108ee565b5b5092915050565b7f4e487b7100000000000000000000000000000000000000000000000000000000600052601260045260246000fd5b6000610a5682610765565b9150610a6183610765565b925082610a7157610a70610a1c565b5b828204905092915050565b600069ffffffffffffffffffff82169050919050565b610a9b81610a7c565b8114610aa657600080fd5b50565b600081519050610ab881610a92565b92915050565b6000819050919050565b610ad181610abe565b8114610adc57600080fd5b50565b600081519050610aee81610ac8565b92915050565b600081519050610b038161083d565b92915050565b600080600080600060a08688031215610b2557610b246106d5565b5b6000610b3388828901610aa9565b9550506020610b4488828901610adf565b9450506040610b5588828901610af4565b9350506060610b6688828901610af4565b9250506080610b7788828901610aa9565b9150509295509295909350565b6000610b8f82610abe565b9150610b9a83610abe565b9250828202610ba881610abe565b91507f80000000000000000000000000000000000000000000000000000000000000008414600084121615610be057610bdf6108ee565b5b8282058414831517610bf557610bf46108ee565b5b509291505056fea2646970667358221220677effcc5aab0935d29fa78ce26a604be7bc835234bb66011504772dc87d885164736f6c63430008120033",
  "devdoc": {
    "kind": "dev",
    "methods": {},
    "version": 1
  },
  "userdoc": {
    "kind": "user",
    "methods": {},
    "version": 1
  },
  "storageLayout": {
    "storage": [
      {
        "astId": 67,
        "contract": "contracts/FundMe.sol:FundMe",
        "label": "funders",
        "offset": 0,
        "slot": "0",
        "type": "t_array(t_address)dyn_storage"
      },
      {
        "astId": 71,
        "contract": "contracts/FundMe.sol:FundMe",
        "label": "addressToAmountUsd",
        "offset": 0,
        "slot": "1",
        "type": "t_mapping(t_address,t_uint256)"
      },
      {
        "astId": 86,
        "contract": "contracts/FundMe.sol:FundMe",
        "label": "priceFeed",
        "offset": 0,
        "slot": "2",
        "type": "t_contract(AggregatorV3Interface)45"
      }
    ],
    "types": {
      "t_address": {
        "encoding": "inplace",
        "label": "address",
        "numberOfBytes": "20"
      },
      "t_array(t_address)dyn_storage": {
        "base": "t_address",
        "encoding": "dynamic_array",
        "label": "address[]",
        "numberOfBytes": "32"
      },
      "t_contract(AggregatorV3Interface)45": {
        "encoding": "inplace",
        "label": "contract AggregatorV3Interface",
        "numberOfBytes": "20"
      },
      "t_mapping(t_address,t_uint256)": {
        "encoding": "mapping",
        "key": "t_address",
        "label": "mapping(address => uint256)",
        "numberOfBytes": "32",
        "value": "t_uint256"
      },
      "t_uint256": {
        "encoding": "inplace",
        "label": "uint256",
        "numberOfBytes": "32"
      }
    }
  }
}